:020000040800F2
:10000000A811002045010008C90A0008B509000828
:10001000C50A0008E3030008471A000800000000B2
:10002000000000000000000000000000CB110008EC
:100030003107000800000000E10F0008B1130008BC
:100040005F0100085F0100085F0100085F01000810
:100050005F0100085F0100085F0100085F01000800
:100060005F0100085F0100085F0100085F010008F0
:100070005F0100085F0100085F0100085F010008E0
:100080005F0100085F0100085F0100085F010008D0
:100090005F0100085F0100085F0100085F010008C0
:1000A0005F0100085F0100085F0100085F010008B0
:1000B0005F0100085F0100085F0100085F010008A0
:1000C0005F0100085F0100085F0100085F01000890
:1000D0005F010008691600085F0100089D1700080D
:1000E0005F0100085F0100085F0100085F01000870
:1000F0005F0100085F0100085F0100085F01000860
:100100005F0100085F0100085F0100085F0100084F
:100110005F0100085F0100085F0100085F0100083F
:100120005F0100085F0100085F0100085F0100082F
:10013000DFF80CD000F052F800480047D11C00084E
:10014000A81100200648804706480047FEE7FEE762
:10015000FEE7FEE7FEE7FEE7FEE7FEE7FEE7FEE777
:10016000B513000831010008D2B201E000F8012BFC
:10017000491EFBD270470022F6E710B513460A4627
:1001800004461946FFF7F0FF204610BD30B505467E
:100190002A460B4612F8010B13F8014B08B1A04296
:1001A000F8D01CB1002802D06D1CF1E7284630BD04
:1001B00030B50B46014600202022012409E021FA37
:1001C00002F59D4205D303FA02F5491B04FA02F534
:1001D0002844151EA2F10102F1DC30BD064C074D8A
:1001E00006E0E06840F0010394E807009847103407
:1001F000AC42F6D3FFF7A0FF743E0008943E00081F
:1002000070B58C1810F8015B15F0070301D110F8D8
:10021000013B2A1106D110F8012B03E010F8016B05
:1002200001F8016B5B1EF9D12B0705D40023521E88
:100230000DD401F8013BFAE710F8013BCB1A921CF0
:1002400003E013F8015B01F8015B521EF9D5A142EE
:10025000D8D3002070BD21B1826842F001028260D3
:1002600003E0826822F001028260704701460020AC
:100270008A6802F004020AB1012000E00020704701
:100280000146C86C80B270470246002013680B40DC
:100290000BB1012000E000207047014600208A6871
:1002A00002F008020AB1012000E0002070470000BF
:1002B00030B502460020002350680F4C20400D79D5
:1002C0000C6844EA05242043506090680B4C2040A1
:1002D000D1E902542C434D7944EA4504204390600F
:1002E000D06A20F470000C7C641EE4B2234340EA20
:1002F0000350D06230BD0000FFFEF0FFFDF7F1FFBC
:10030000F0B504460D4600200021092D11DDE068FE
:10031000A5F10A0606EB4607072606FA07F1884309
:10032000A5F10A0606EB460603FA06F10843E0606B
:100330000CE0206905EB4507072606FA07F188431C
:1003400005EB450603FA06F108432061072A0FDA98
:10035000606B561E06EB86071F2606FA07F18843D8
:10036000561E06EB860605FA06F10843606322E096
:100370000D2A0FDA206BD61F06EB86071F2606FA1A
:1003800007F18843D61F06EB860605FA06F10843F7
:10039000206310E0E06AA2F10D0606EB86071F2637
:1003A00006FA07F18843A2F10D0606EB860605FA68
:1003B00006F10843E062F0BD816841F00801816008
:1003C000704721B1826842F4A002826003E0826833
:1003D00022F4A00282607047816841F004018160CC
:1003E000704700BFFEE7000010B54021014800F053
:1003F000BFFA10BD0008014008B50121042000F03B
:1004000005FE4020ADF8000048208DF803000320D1
:100410008DF802006946024800F0D6F908BD0000D8
:10042000000801400020002105E0044A525C02441B
:10043000D0B24A1CD1B20829F7DB7047980D0020D2
:1004400010B52748008800F40040002846D025A1B8
:100450002648FFF79BFE30B1012000F08BF924A065
:1004600000F068F933E025A12048FFF78FFE30B196
:10047000002000F07FF923A000F05CF927E025A11F
:100480001A48FFF783FE48B103224FF400610020B1
:1004900000F028FF23A000F04DF918E026A1134832
:1004A000FFF774FE48B103224FF40061012000F011
:1004B00019FF25A000F03EF909E028A10B48FFF73D
:1004C00065FE20B100F056FF27A000F033F90020B0
:1004D00003490880C8210548FFF74DFE10BD000004
:1004E0001C00002046414E3A4F4E0000D00C002028
:1004F00046414E3A4F4E5F41434B0A0046414E3A09
:100500004F46460046414E3A4F46465F41434B0AEE
:10051000000000004D4F544F523A464F525741523F
:10052000440000004D4F544F523A464F52574152EB
:10053000445F41434B0A00004D4F544F523A4241F1
:10054000434B5741524400004D4F544F523A4241A1
:10055000434B574152445F41434B0A004D4F544F68
:10056000523A53544F5000004D4F544F523A535447
:100570004F505F41434B0A0010B5002400F024F8AF
:1005800004E0601CC4B2012001F07CFB0D4800684F
:1005900008B1642CF5DB642C01DB012010BD0024C4
:1005A00004E0601CC4B2012001F06CFB0548006847
:1005B00008B9642CF5DB642C01DB0120EEE7002098
:1005C000ECE700003C01214208B50121052000F0C4
:1005D0001DFD0121074800F083F94FF40040ADF8FC
:1005E000000004208DF803006946034800F0ECF891
:1005F00008BD0000000230000008014008B50121DC
:10060000052000F003FD0121084800F069F94FF4CE
:100610000040ADF8000010208DF8030003208DF895
:1006200002006946024800F0CFF808BD0002300021
:100630000008014010B500F065F8FFF79DFF10BD00
:1006400010B5002404E0601CC4B2012001F01AFBC4
:100650000D48006808B1642CF5DB002404E0601C40
:10066000C4B2012001F00EFB0748006808B9642CF1
:10067000F5DB282001F006FB0348006808B10120E3
:1006800010BD0020FCE700003C01214270B50024B1
:10069000002506E06006040EFFF7D2FF0443681C45
:1006A000C5B2082DF6DB204670BD7CB505460E466A
:1006B00000F028F8FFF760FFF8B9002405E0FFF725
:1006C000E5FF0DF80400601CC4B2052CF7DB9DF8B3
:1006D00000009DF8011008449DF8021008449DF8A0
:1006E000031008449DF80410884208D19DF80000CA
:1006F00030709DF80200287001E001207CBD0020D0
:10070000FCE7000010B5FFF779FF002006490860FC
:10071000142001F091FA01200449C1F8BC011E2007
:1007200001F0B0FA10BD0000BC01214200002142DE
:100730007047000010B5044616E000BF80210C4849
:1007400001F0B0F80028F9D014F8011B084801F0B6
:1007500076F900BF4021064801F0A4F80028F9D03E
:100760004021034801F07AF820780028E5D110BD37
:100770000038014010B5044624B10221044800F0BD
:1007800002F903E00221024800F0FBF810BD00006E
:10079000000C014008B50121082000F037FC0220C0
:1007A000ADF8000010208DF8030003208DF8020042
:1007B0006946044800F008F80221024800F0E1F818
:1007C00008BD0000000C01402DE9F0410246002563
:1007D0000026002000230024002791F803C00CF01D
:1007E0000F0591F803C00CF0100CBCF1000F03D002
:1007F00091F802C04CEA050591F800C0BCF1000F69
:1008000031D0146800202BE04FF0010C0CFA00F3FB
:10081000B1F800C00CEA03069E4220D183004FF0DD
:100820000F0C0CFA03F7BC4305FA03FC4CEA040472
:1008300091F803C0BCF1280F06D14FF0010C0CFA5F
:1008400000FCC2F814C00AE091F803C0BCF1480FE4
:1008500005D14FF0010C0CFA00FCC2F810C0401C8E
:100860000828D1D31460B1F800C0BCF1FF0F34DD0B
:10087000546800202EE000F1080C4FF0010808FA3F
:100880000CF3B1F800C00CEA03069E4221D18300AC
:100890004FF00F0C0CFA03F7BC4305FA03FC4CEACB
:1008A000040491F803C0BCF1280F05D100F1080C35
:1008B00008FA0CF8C2F8148091F803C0BCF1480F94
:1008C00007D100F1080C4FF0010808FA0CF8C2F843
:1008D0001080401C0828CED35460BDE8F081000091
:1008E000F0B50A46002300240021002500F0004650
:1008F000B6F1004F02D11D4EF16901E01B4E716847
:10090000C0F3034583B200F44016B6F5401F08D18A
:1009100021F07061154E766826F07066134F7E6088
:1009200012E000F48016B6F5801F06D1032606FA01
:1009300005F4A14341F0706106E0460D360103FA6B
:1009400006F6B14341F0706122B1460D360103FA5B
:1009500006F6314300F00046B6F1004F02D1034ED7
:10096000F16101E0014E7160F0BD00000000014046
:100970000246002093680B400BB1012000E00020EC
:100980007047416170470161704700000B200749C3
:10099000097851B1064AD279054B9B7942EA032185
:1009A00008460022014B1A7000BF70473C08002027
:1009B000980D002000BFFEE708B50121082000F0D7
:1009C00025FB0120ADF8000010208DF80300032066
:1009D0008DF8020069460448FFF7F6FE012102483F
:1009E000FFF7CFFF08BD0000000C014010B500F07C
:1009F0007FFE10BD10B500F04DF8044640F6FF70C4
:100A0000001B6421484340F6FF7190FBF1F0C0B237
:100A100010BD000000B587B001214FF4017000F057
:100A2000F5FA2020ADF8180000208DF81B0006A96B
:100A30001648FFF7C9FE002001908DF808008DF8D8
:100A400009004FF4602003900020049001208DF8ED
:100A5000140001A90E48FFF72BFC01210C48FFF7F9
:100A6000FAFB0B48FFF7A8FC00BF0948FFF715FC8D
:100A70000028FAD10648FFF7AFFC00BF0448FFF793
:100A8000F5FB0028FAD107B000BD000000080140C6
:100A90000024014010B50523012219460848FFF73C
:100AA0002FFC01210648FFF78CFC00BF02210448FF
:100AB000FFF7EAFB0028F9D00148FFF7E1FB10BD82
:100AC0000024014000BFFEE77047000070B5002120
:100AD00000230F22C47804B3154C246804F4E064A6
:100AE000C4F5E064210AC1F10403CA40447804FA61
:100AF00003F184781440214309010E4C0678A15576
:100B0000047804F01F050124AC4005786D11AD0098
:100B100005F1E025C5F8004109E0047804F01F055F
:100B20000124AC40044D0678761145F8264070BD8E
:100B30000CED00E000E400E080E100E070B500248E
:100B40000CE0002506E00020074901EBC50108552F
:100B5000681CC5B2802DF6DB601CC4B2082CF0DB2B
:100B600000F0D6F870BD000050080020F0B5144623
:100B70000B46CF1701EB5777C7F3C702CF1701EB2F
:100B80005777FF10A1EBC707FEB20123B340DDB2D8
:100B90004CB1134B03EBC0039B5C2B43104F07EB93
:100BA000C007BB541AE00E4B03EBC0039B5CDB4356
:100BB0000B4F07EBC007BB54094B03EBC0039B5C17
:100BC0002B43074F07EBC007BB54054B03EBC00398
:100BD0009B5CDB43024F07EBC007BB54F0BD00003A
:100BE0005008002008B50121052000F00FFA01216E
:100BF0003F48FFF775FE48F21F00ADF800001020D7
:100C00008DF8030003208DF8020069463948FFF78C
:100C1000DBFD48F21F013748FFF7B5FE04213548D8
:100C2000FFF7AFFEC82001F007F804213148FFF7B5
:100C3000AAFE0021FD2000F09BF90021122000F007
:100C400097F90021AE2000F093F90021D52000F0A3
:100C50008FF90021A02000F08BF90021A82000F0DE
:100C600087F900213F2000F083F90021D32000F014
:100C70007FF90021084600F07BF90021402000F0B8
:100C800077F90021A12000F073F90021C82000F0BD
:100C90006FF90021DA2000F06BF90021122000F03A
:100CA00067F90021812000F063F900217F2000F026
:100CB0005FF90021D92000F05BF90021822000F0CB
:100CC00057F90021DB2000F053F90021342000F017
:100CD0004FF90021A42000F04BF90021A62000F0DC
:100CE00047F9FFF72BFF0021AF2000F041F908BDC5
:100CF000000230000008014010B50246012000E06B
:100D000050430B1EA1F10104E1B2F9D110BD000066
:100D100070B500241CE004F1B001C8B2002100F05D
:100D200027F90021084600F023F90021102000F0E7
:100D30001FF9002508E0084901EBC501085D012104
:100D400000F016F9681CC5B2802DF4DB601CC4B23B
:100D5000082CE0DB70BD0000500800202DE9FE4F9C
:100D60000746884692461C460197CDF80080082C1D
:100D700002D14FF006091FE02046E31704EB53733E
:100D8000DB1021464FEAE47C04EB5C7C4FEAEC0C80
:100D9000A4EBCC0CBCF1000F02D04FF0010C01E031
:100DA0004FF0000C6344224604EBD27C4FEA6C0CFB
:100DB00003FB0CF303F0FF09AAF12000C6B20025E3
:100DC0005EE0082C07D106EB46002F4901EB4000FE
:100DD00010F805B01DE00C2C07D106EB46002B499E
:100DE00001EB800010F805B013E0102C05D1284865
:100DF00000EB061010F805B00BE0182C07D106EB3D
:100E0000C600244901EB800010F805B001E0BDE800
:100E1000FE8F002002901CE00BF0010028B141463B
:100E200038460C9AFFF7A2FE09E00C9808B9012099
:100E300000E00020024641463846FFF797FE4FEAA1
:100E40006B0B08F1010000F0FF080298401CC0B2D3
:100E5000029002980828DFDB781CC7B2082C0BD060
:100E600004EBD4714A100199791A8A4204D1019F86
:100E700000980830C0B20090DDF80080681CC5B250
:100E80004D459EDB00BFC2E7442100086C230008EB
:100E9000E0270008D02D00082DE9FF4F82B006465C
:100EA00091461F46DDE90F4A4FF0000B082C01D197
:100EB0004FF0020B002530E0781B401EC1B20A2023
:100EC000FFF71AFFB9FBF0F00A21B0FBF1F201FBCA
:100ED0001208B8F1000F0ED104EBD4710BEB6101D5
:100EE00001FB0561C8B223463022CDE900A4039975
:100EF000FFF734FF0FE004EBD4710BEB610101FB52
:100F00000561C8B208F13001CAB22346CDE900A498
:100F10000399FFF723FF681CC5B2BD42CCDB06B0C6
:100F2000BDE8F08F2DE9F84106460F4614461D46F0
:100F3000DDF81C8013E0CDF8008022782B4639467E
:100F40003046FFF70BFF082D02D1B01DC6B205E0F9
:100F5000284605EBD07106EB6101CEB2641C207807
:100F6000202802DB20787E28E5DDBDE8F88100003E
:100F700070B504460E4626B108211848FFF703FD58
:100F800003E008211548FFF7FCFC10211348FFF788
:100F9000F8FC002517E001211048FFF7F2FC04F0EF
:100FA000800020B102210D48FFF7EDFC03E0022193
:100FB0000A48FFF7E6FC01210848FFF7E4FC600659
:100FC000040E681CC5B2082DE5DB10210348FFF7AD
:100FD000DAFC08210148FFF7D6FC70BD000801408B
:100FE000704710B5FFF72CFA10BD000029B1064A72
:100FF000D2690243044BDA6104E0034AD2698243B6
:10100000014BDA61704700000010024029B1064A26
:1010100092690243044B9A6104E0034A9269824355
:10102000014B9A61704700000010024030B500216A
:101030000022002400232D4D6D6805F00C0121B124
:10104000042905D0082923D105E0294D056022E0B7
:10105000274D05601FE0254D6D6805F47012234D86
:101060006D6805F48034022505EB92421CB9214DD0
:10107000554305600BE01D4D6D6805F400351DB14D
:101080001C4D5543056002E0194D5543056002E0D3
:10109000174D056000BF00BF144D6D6805F0F001ED
:1010A0000909154D6B5C0568DD4045600F4D6D68A5
:1010B00005F4E061090A104D6B5C4568DD40856010
:1010C0000A4D6D6805F46051C90A0B4D6B5C4568AB
:1010D000DD40C560054D6D6805F44041890B074D45
:1010E0006B5CC568B5FBF3F5056130BD00100240CF
:1010F00000127A0000093D000000002010000020CE
:1011000070B505460E4614462E602C710020E8800E
:101110000121304600F0E1F9012C05D10122002126
:10112000304600F0CBF916E0022C05D10122042153
:10113000304600F0C3F90EE0032C05D1012208214E
:10114000304600F0BBF906E0042C04D101220C214A
:10115000304600F0B3F90021284600F001F870BDD8
:1011600070B504460D46002D01DBB42D01DD0020D5
:1011700070BD4FF4FA606843B42190FBF1F000F5C4
:10118000FA762079012806D0022809D003280CD04D
:10119000042814D10EE0B1B2206800F00AFA10E081
:1011A000B1B2206800F007FA0BE0B1B2206800F09D
:1011B00004FA06E0B1B2206800F001FA01E0002074
:1011C000D6E700BFE5800120D2E7704710B500F0F8
:1011D00001F810BD0CB50020019000903348006864
:1011E00040F480303149086000BF3048006800F4A6
:1011F000003000900198401C0190009818B90198A7
:10120000B0F5A06FF1D12948006800F4003010B1AA
:101210000120009001E0002000900098012843D1B7
:101220002348006840F01000214908600846006823
:1012300020F0030008600846006840F002000860E3
:101240001A4840681949486008464068486008469E
:10125000406840F4806048600846406820F47C1094
:1012600048600846406840F4E81048600846006856
:1012700040F08070086000BF0C48006800F000700B
:101280000028F9D00948406820F003000749486069
:101290000846406840F00200486000BF03484068CC
:1012A00000F00C000828F9D10CBD0000001002402D
:1012B0000020024008B501210920FFF7A7FE4FF4E6
:1012C0007040ADF8000010208DF8030003208DF869
:1012D000020069460248FFF777FA00F04BF808BDB4
:1012E000000C01402DE9F04104460D46164600274A
:1012F00020E05CB911480078401C1049087008468D
:10130000007808280EDB002008700BE00B480078FE
:1013100018B907200949087004E008480078401E01
:10132000064908700548007800F00AF8B0B200F0ED
:1013300083FC7F1CAF42DCD3BDE8F0814E08002067
:1013400070B504464FF470410848FFF71AFB254674
:10135000E01704EB5070C010A4EBC000044A32F850
:1013600010100248FFF70FFB70BD0000000C014099
:101370003E08002010B54FF470410248FFF701FB12
:1013800010BD0000000C0140042808D14FF0E021FE
:10139000096941F004014FF0E022116107E04FF0CC
:1013A000E021096921F004014FF0E022116170474A
:1013B0007047000010B51348006840F00100114963
:1013C000086008464068104908400E4948600846D1
:1013D00000680E4908400B4908600846006820F480
:1013E000802008600846406820F4FE0048604FF402
:1013F0001F008860FFF7EAFE4FF0006004490860B4
:1014000010BD0000001002400000FFF8FFFFF6FED4
:1014100008ED00E030B589B005460C4601210220F8
:10142000FFF7E4FD01210520FFF7F0FD8020ADF876
:10143000200018208DF8230003208DF8220008A931
:101440001648FFF7C1F9ADF81850ADF81440002068
:10145000ADF81A00ADF8160005A9114800F0B2F871
:101460006020ADF804000120ADF806000020ADF8C2
:101470000A00ADF80C0001A9094800F03BF808216A
:10148000074800F089F80121054800F00BF8012118
:10149000034800F022F809B030BD00000008014008
:1014A0000004004021B1028842F08002028004E082
:1014B00002884FF67F731A400280704730B50023D0
:1014C00001248C40A3B2048C9C430484048C02FA53
:1014D00001F5ADB22C43048430BD21B1028842F045
:1014E0000102028004E002884FF6FE731A40028077
:1014F0007047000070B5002400220023058C4FF6D1
:10150000EF7635400584028C8388048B48F6FF759E
:101510002C404FF6FF452C400D884FF6FF7606EA2B
:1015200005252C434FF6DF752A400D8906EA05157F
:101530002A434D8806EA05152A43154DA84202D0D4
:10154000144DA8421DD14FF67F752A404D894FF6A4
:10155000FF7606EA05152A434FF6BF752A408D88A7
:1015600006EA05152A434FF6FF352B404FF2FF756B
:101570002B408D8906EA85052B43CD8906EA850532
:101580002B4383800483CD880587028470BD0000CF
:10159000002C0140003401400A460021018B4FF22B
:1015A000FF7319404FF6FF7303EA022319430183C7
:1015B0007047818670470187704781877047A0F820
:1015C00040107047002202881D4B98420ED01D4BE0
:1015D00098420BD0B0F1804F08D01B4B984205D0F9
:1015E0001A4B984202D01A4B984204D14FF68F738F
:1015F0001A404B881A43174B984207D0164B984213
:1016000004D04FF6FF431A40CB881A4302808B88E0
:1016100083850B8803850A4B98420BD0094B98426F
:1016200008D00E4B984205D00D4B984202D00D4B7E
:10163000984201D10B7A0386012383827047000010
:10164000002C01400034014000040040000800402C
:10165000000C004000100040001400400040014019
:10166000004401400048014010B540F225511D489A
:1016700000F025F910B31B4800F0DCF9C4B21A4899
:10168000008800F40040C8B91748008800F4804082
:1016900060B10A2C03D000201349088020E01248D2
:1016A000008840F400401049088019E00D2C06D154
:1016B0000D48008840F480400B49088010E00A483B
:1016C0000088C0F30D0009490C5407480088401CED
:1016D0000549088008460088C72801DD00200880E9
:1016E00010BD0000003801401C000020D00C00207C
:1016F00000B587B001218804FFF778FC012108209C
:10170000FFF784FC4FF48060ADF8180003208DF8DB
:101710001A0018208DF81B0006A91E48FFF754F880
:101720004FF40060ADF8180004208DF81B0006A9E6
:101730001848FFF749F827208DF8040000208DF89D
:10174000050004208DF8060001208DF8070001A88F
:10175000FFF7BCF94FF4165002900020ADF80C00D2
:10176000ADF80E00ADF81000ADF814000C20ADF887
:10177000120002A9084800F0F1F8012240F22551B8
:10178000054800F0C6F80121034800F07FF807B0D3
:1017900000BD0000000C01400048004010B540F2C0
:1017A00025512A4800F08BF800284DD0274800F03A
:1017B00041F9C4B22648007870B92C2C08D12448CD
:1017C00001780078401C224A10702248445436E0C8
:1017D00000201F49087032E01D48007801280ED112
:1017E000E42C08D11A4801780078401C184A10707F
:1017F0001848445423E00020154908701FE014489D
:101800000078092818DA124801780078401C104A3C
:101810001070104844541046007809280FD1FEF784
:1018200001FE0C49097A884202D101200A49087058
:1018300000200749087002E000200549087040F2C6
:101840002551024800F013F810BD00000048004088
:101850003D080020980D00203C08002001F4007293
:10186000B2F5007F00D100BFCA430280704710B5B7
:101870000022002340F66A14A14200D100BF0A12E0
:1018800001249440A3B2DC43048010BD21B18289BD
:1018900042F40052828104E082894DF6FF731A40BF
:1018A0008281704702460020B1F5007F00D100BF61
:1018B00013880B400BB1012000E00020704770B589
:1018C0000246002400230025002040F66A16B1429B
:1018D00000D100BFC1F3421501F01F03012606FA33
:1018E00003F3012D02D19689334006E0022D02D187
:1018F000168A334001E0968A33400C12012606FA1C
:1019000004F41688344013B10CB1012000E000202B
:1019100070BDF0B50346002400260025002040F6E7
:101920006A17B94200D100BF1846C1F3421401F052
:101930001F06012707FA06F5012C01D10C3004E03F
:10194000022C01D1103000E014301AB107682F4387
:10195000076002E00768AF430760F0BD2DE9F0477C
:1019600086B005460E460024A24600BFA1460027C9
:10197000B08900B100BF2F462C8A4CF6FF7004409E
:10198000F08804432C82AC894EF6F3100440B088F2
:1019900031890843718908430443AC81AC8A4FF60E
:1019A000FF400440B0890443AC8201A8FFF73EFB2E
:1019B0001F48874202D1DDF810A001E0DDF80CA03D
:1019C000A88900F4004040B10AEBCA0000EB0A10FD
:1019D00031684900B0FBF1F807E00AEBCA0000EB00
:1019E0000A1031688900B0FBF1F86420B8FBF0F010
:1019F00004012009642101FB1089A88900F400403A
:101A000040B1322000EBC900B0FBF1F000F007005C
:101A1000044308E0322000EB09106421B0FBF1F030
:101A200000F00F0004432C8106B0BDE8F0870000F1
:101A30000038014001468888C0F308007047C1F3B0
:101A400008028280704700BFFEE700000FB4084B19
:101A500010B504A902AA039800F01CF8044602A9D4
:101A6000002000F0C1F8204610BC5DF814FB000017
:101A7000E91B000802E008C8121F08C1002AFAD1B9
:101A800070477047002001E001C1121F002AFBD1FE
:101A9000704700002DE9FF4F89B09B4604460025A2
:101AA00006E025280BD05A460B999047641C6D1C04
:101AB00020780028F5D10DB02846BDE8F08F00272A
:101AC000B8460122474900E0074314F8013F203B94
:101AD00002FA03F00842F7D120782E2819D114F821
:101AE000010F47F004072A280ED06FF02F0220784C
:101AF000A0F1300109290CD808EB880102EB410163
:101B000000EB0108641CF2E70A98641C50F8048B8F
:101B10000A9020780028CED0642808D0692806D002
:101B200075281ED05A460B9990476D1C58E00A99AB
:101B30004FF00A0901C90A91002802DA40422D211A
:101B400002E0390504D52B218DF82010012103E096
:101B5000F90704D02021F7E78A4608AE0DE00021FE
:101B6000FAE70A994FF00A0901C90A91F7E74946CD
:101B7000FEF71EFB303106F8011D0028F7D1ADEB52
:101B8000060000F12009780701D44FF00108C8458C
:101B900002DDA8EB090000E000208046002706E0F7
:101BA00008A85A46C05D0B9990476D1C7F1C57458D
:101BB000F6DB04E030205A460B9990476D1CB8F1D3
:101BC0000001A8F10108F5DC05E016F8010B5A4602
:101BD0000B9990476D1CB9F10001A9F10109F4DCE2
:101BE000641C65E7092801000A68531C0B6010702B
:101BF0007047000010B56FF00400FFF7C5FB0A48FE
:101C000000680A49B0FBF1F00949087008460078FD
:101C100000EB4001C1EBC0104FF6FF7101EAC000BC
:101C20000449088010BD00002000002000127A0046
:101C300014000020160000200146114A12884A4371
:101C40004FF0E0235A6100229A611A46126942F06D
:101C500001021A6100BF4FF0E022106900F001029A
:101C60001AB100F48032002AF5D04FF0E022126958
:101C700022F001024FF0E0231A6100229A617047BE
:101C8000160000200146114A12784A434FF0E02323
:101C90005A6100229A611A46126942F001021A61E1
:101CA00000BF4FF0E022106900F001021AB100F409
:101CB0008032002AF5D04FF0E022126922F00102B2
:101CC0004FF0E0231A6100229A617047140000204F
:101CD00094B04FF0000AD3460024A0460020119093
:101CE00000251090FFF786FFFEF77CFFFEF7A2FCB1
:101CF000FEF790FEFEF77AFE472144F61F60FFF7DD
:101D000089FB0222BF49C048FFF7FAF9FEF774FBCE
:101D1000FEF752FEFEF73EFDFFF7CCFA4FF4E1303E
:101D200000F0C0F9FEF75EFFFEF708FF01200C236C
:101D3000B6A2002100900A20FFF7F4F801200C233E
:101D4000B5A20E2100900220FFF7ECF801200C2331
:101D5000B3A21E2100900220FFF7E4F801200C231B
:101D6000B1A20E2100903A20FFF7DCF801200C23ED
:101D7000AFA21E2100903A20FFF7D4F801200C23D7
:101D800025220E2100902F20FEF7E8FF01200C23D2
:101D900043221E2100902F20FEF7E0FF01200C239C
:101DA00025220E2100906C20FEF7D8FF01200C2385
:101DB000A1A21E2100906C20FFF7B4F801200C2393
:101DC0009EA2302100900F20FFF7ACF8FEF7A0FF95
:101DD00016E1FEF709FB8046119880452DD01420AE
:101DE000FFF72AFFB8F1000F25D10DB9012000E05F
:101DF00000200546ADB10CB9012000E000200446EA
:101E00000CB15A2000E0002001467F48FFF7A8F9F6
:101E100001200C238CA2302100900F20FFF782F8C4
:101E200007E001200C238BA2302100900F20FFF748
:101E300079F8FEF76DFFCDF844801098B0F5FA7F81
:101E40000EDBCDE900679DF848309DF84C2084A159
:101E500003A8FFF7FBFD03A8FEF76CFC0020109021
:101E60001098401C80B21090BAF1640F72DB12A976
:101E700013A8FEF71AFC8146FEF7BCFD0646FEF7E6
:101E800085FD074601200C237EA20E210090232011
:101E9000FFF748F801200C237AA21E21009023208E
:101EA000FFF740F801200C2376A20E2100905A2063
:101EB000FFF738F801200C2373A21E2100905A204E
:101EC000FFF730F8B9F1000F61D101200C21022396
:101ED000CDE900109DF848200E212320FEF7DCFFFD
:101EE00001200C210223CDE900109DF84C201E2179
:101EF0002320FEF7D1FF01200C2102233246CDE939
:101F000000100E215A20FEF7C7FF01200C210423E8
:101F10003A46CDE900101E215A20FEF7BDFFF5B963
:101F20009DF84C00192806DD5CB95A213648FFF7A8
:101F300017F9012405E024B100213348FFF710F917
:101F400000249DF84800282805DA01215048FEF7B2
:101F50001AFD04E04BE001214D48FEF712FDBBF1F4
:101F6000000F40DD45B101200C2337A23021009045
:101F70000F20FEF7D7FF07E001200C2335A2302108
:101F800000900F20FEF7CEFF4FF0000B2BE001205A
:101F90000C2340A20E2100902320FEF7C3FF012056
:101FA0000C233CA21E2100902320FEF7BBFF012042
:101FB0000C2338A20E2100905A20FEF7B3FF012017
:101FC0000C2334A21E2100905A20FEF7ABFF012003
:101FD0000C2331A2302100900F20FEF7A3FF0BF15C
:101FE000010000F0FF0BFEF793FE4FF0000A0AF12C
:101FF00001001FFA80FAFEF7F4FF0A20FFF71CFE2B
:10200000E7E6000000040040340800204752454540
:102010004E20484F5553450048756D693A00000001
:1020200054656D703A0000004C696768743A0000AE
:10203000434F323A0000000070706D004175746FBC
:10204000204D6F64650000004D616E75616C204D20
:102050006F6465004175746F204D6F6465200000EA
:1020600054454D503A25642C48554D493A25642C29
:102070004C494748543A25642C434F323A25640A68
:102080000000000020200000202020200000000090
:10209000000C01404552000073656E736F7220455D
:1020A0007272000010B586B00446012144F20500AA
:1020B000FEF7ACFF4FF40070ADF8140003208DF86C
:1020C000160018208DF8170005A91C48FEF77CFBA8
:1020D0004FF48060ADF8140004208DF8170005A9B6
:1020E0001648FEF771FB25208DF8000003208DF8BF
:1020F00001008DF8020001208DF803006846FEF70C
:10210000E5FC01940020ADF80800ADF80A00ADF838
:102110000C00ADF810000C20ADF80E0001A9084825
:10212000FFF71CFC012240F225510548FFF7F1FBA7
:1021300001210348FFF7AAFB06B010BD00080140CB
:10214000003801400000000000000000002F0000E7
:1021500000000700070000147F147F1400242A7F6A
:102160002A120062640813230036495522500000E9
:102170000503000000001C224100000041221C0059
:102180000014083E08140008083E0808000000A0DB
:1021900060000008080808080000606000000020D7
:1021A00010080402003E5149453E0000427F4000B5
:1021B000004261514946002141454B31001814123B
:1021C0007F10002745454539003C4A494930000108
:1021D0007109050300364949493600064949291E57
:1021E00000003636000000005636000000081422B9
:1021F00041000014141414140000412214080002B9
:102200000151090600324959513E007C1211127CDD
:10221000007F49494936003E41414122007F41410A
:10222000221C007F49494941007F09090901003EFC
:102230004149497A007F0808087F0000417F41003A
:10224000002040413F01007F08142241007F4040B0
:102250004040007F020C027F007F0408107F003E98
:102260004141413E007F09090906003E4151215E7E
:10227000007F091929460046494949310001017F7B
:102280000101003F4040403F001F2040201F003F11
:102290004038403F006314081463000708700807C3
:1022A00000615149454300007F41410000552A55D6
:1022B0002A55000041417F00000402010204004051
:1022C0004040404000000102040000205454547873
:1022D000007F484444380038444444200038444493
:1022E000487F00385454541800087E090102001831
:1022F000A4A4A47C007F080404780000447D40006E
:10230000004080847D00007F102844000000417F51
:102310004000007C04180478007C0804047800382D
:102320004444443800FC242424180018242418FCB5
:10233000007C0804040800485454542000043F441E
:102340004020003C4040207C001C2040201C003CE1
:102350004030403C004428102844001CA0A0A07C31
:10236000004464544C441414141414140000000069
:1023700000000000000000000000FC000000000061
:1023800002000000000C020C02000000000000002F
:1023900090D0BCD0BC900003000300001824FE4481
:1023A0008C000302070201001824D8B04C800003FF
:1023B00000010201C038E438E0000102020102021B
:1023C000080600000000000000000000000000F807
:1023D0000402000000010204000204F800000004EE
:1023E000020100009060F860900000000100000011
:1023F0002020FC2020000000010000000000000060
:10240000000008060000000020202020200000001E
:1024100000000000000000000000000200000000BA
:102420000080601C0200040300000000F8040404A3
:10243000F8000102020201000008FC000000000296
:102440000302000018844424180003020202020060
:1024500008042424D80001020202010040B088FCD4
:1024600080000000000302003C242424C400010278
:1024700002020100F824242CC00001020202010023
:102480000C04E41C0400000003000000D8242424F1
:10249000D80001020202010038444444F80000035D
:1024A0000202010000001000000000000200000015
:1024B00000002000000000000600000000205088FE
:1024C0000402000000000102909090909000000033
:1024D00000000000000204885020000201000000FB
:1024E0001804C4241800000002000000F804E4945A
:1024F000F80001020202020000E09CF080000203EA
:102500000000030204FC2424D8000203020201009C
:10251000F80404040C0001020202010004FC04049B
:10252000F80002030202010004FC24740C00020300
:102530000202030004FC24740C00020302000000E9
:10254000F0080444CC4000010202010004FC2020F9
:10255000FC040203000003020404FC040400020261
:1025600003020200000404FC040406040403000047
:1025700004FC24D00C0402030200030204FC040047
:102580000000020302020203FC3CC03CFC0003000A
:102590000300030004FC30C4FC0402030200030037
:1025A000F8040404F80001020202010004FC2424DF
:1025B0001800020302000000F8848404F8000102FD
:1025C0000207050004FC24649800020302000302D1
:1025D000182424448C000302020201000C04FC04B1
:1025E0000C0000020302000004FC0000FC040001D7
:1025F00002020100047C80E01C04000003000000D3
:102600001CE03CE01C00000300030000049C609CF4
:102610000400020300030200041CE01C040000028A
:10262000030200000C84641C040002030202030085
:102630000000FE020200000007040400000E30C08B
:102640000000000000010200000202FE0000000481
:102650000407000000040204000000000000000065
:102660000000000000000808080808080000020038
:1026700000000000000000000040A0A0C000000119
:102680000202030204FC2020C00000030202010039
:1026900000C02020600000010202020000C02024CF
:1026A000FC0000010202030200C0A0A0C000000163
:1026B000020202000020F8242404000203020200A7
:1026C0000040A0A0602000070A0A0A0404FC2020A1
:1026D000C0000203020003020020E4000000000228
:1026E00003020000000020E40000080808070000C2
:1026F00004FC80E020200203020003020404FC002A
:102700000000020203020200E020E020C0000300FB
:102710000300030020E02020C000020302000302A7
:1027200000C02020C00000010202010020E02020A3
:10273000C000080F0A02010000C02020E0000001D4
:10274000020A0F0820E040202000020302000000DF
:102750000060A0A020000002020203000020F82078
:10276000000000000102020020E00020E000000163
:102770000202030220E0208060200000030100002C
:102780006080E08060000003000300002060806043
:10279000200002030003020020E0208060200808DF
:1027A000070100000020A0602000000203020200D8
:1027B000000020DE0200000000070400000000FF0F
:1027C00000000000000F00000002DE2000000004F6
:1027D00007000000020102040402000000000000E3
:1027E00000000000000000000000000000000000E9
:1027F000000000F8000000000000003300000000AE
:1028000000100C02100C020000000000000000008C
:102810000040C07840C0780000043F04043F04003A
:1028200000708888FC08300000182020FF211E005E
:10283000F008F0806018000000310C031E211E001B
:1028400000F00888700000001E21232C1927211099
:1028500000120E0000000000000000000000000058
:10286000000000E0180402000000000718204000EB
:1028700000020418E00000000040201807000000DB
:10288000404080F0804040000202010F010202003F
:1028900000000000E0000000000101010F01010143
:1028A0000000000000000000009070000000000028
:1028B0000000000000000000000101010101010012
:1028C00000000000000000000030300000000000A8
:1028D00000000000C038040000601807000000007D
:1028E00000E010080810E000000F102020100F007A
:1028F00000001010F8000000000020203F20200001
:10290000007008080808F000003028242221300058
:1029100000300808088870000018202121221C00BF
:102920000000804030F8000000060524243F2424E5
:1029300000F88888880808000019202020110E005F
:1029400000E0108888900000000F112020201F0058
:1029500000180808886818000000003E0100000008
:102960000070880808887000001C222121221C00A9
:1029700000F008080810E0000001122222110F00E8
:10298000000000C0C0000000000000303000000067
:102990000000008000000000000000E000000000D7
:1029A00000008040201008000001020408102000F0
:1029B000004040404040400000020202020202008B
:1029C00000081020408000000020100804020100D0
:1029D00000704808088870000000003037000000D0
:1029E000C030C828E810E000071827282F28170053
:1029F0000000C038E0000000203C230202273820FD
:102A000008F8888888700000203F202020110E00E0
:102A1000C0300808080838000718202020100800D7
:102A200008F808080810E000203F202020100F00C0
:102A300008F88888E8081000203F2020232018008C
:102A400008F88888E8081000203F200003000000F4
:102A5000C03008080838000007182020221E020095
:102A600008F808000008F808203F210101213F2054
:102A7000000808F8080800000020203F202000007F
:102A800000000808F8080800C08080807F0000006F
:102A900008F888C028180800203F200126382000A8
:102AA00008F8080000000000203F2020202030000F
:102AB00008F8F800F8F80800203F013E013F200028
:102AC00008F830C00008F808203F200007183F0031
:102AD000E01008080810E0000F10202020100F0060
:102AE00008F808080808F000203F21010101000053
:102AF000E01008080810E0000F10282830504F00A0
:102B000008F8888888887000203F2000030C302057
:102B100000708808080838000038202121221C0095
:102B2000180808F8080818000000203F20000000DE
:102B300008F808000008F808001F202020201F00C7
:102B40000878880000C83808000007380E01000027
:102B500008F800F800F8080000033E013E030000FA
:102B6000081868808068180820302C03032C302057
:102B70000838C800C83808000000203F20000000C6
:102B800010080808C838080020382621202018001E
:102B9000000000FE020202000000007F40404000F2
:102BA000000438C000000000000000010638C0002A
:102BB00000020202FE000000004040407F000000D2
:102BC00000000402020400000000000000000000F9
:102BD00000000000000000008080808080808080F5
:102BE00000020204000000000000000000000000DD
:102BF000000080808000000000192424123F200083
:102C000010F0008080000000003F112020110E0015
:102C10000000008080800000000E112020201100A4
:102C2000000080808090F000001F202020103F20B6
:102C30000000808080800000001F242424241700CE
:102C4000008080E0909020000020203F20200000A5
:102C50000000808080808000006B949494936000DA
:102C600010F0008080800000203F210000203F20E5
:102C700000809898000000000020203F20200000E5
:102C8000000000809898000000C08080807F0000D5
:102C900010F0000080808000203F240629302000B2
:102CA000001010F8000000000020203F202000004D
:102CB0008080808080808000203F20003F20003F77
:102CC0008080008080800000203F210000203F2085
:102CD0000000808080800000001F202020201F0036
:102CE000808000808000000080FF912020110E0075
:102CF0000000008080008000000E11202091FF80E5
:102D0000808080008080800020203F212000010002
:102D10000000808080808000003324242424190057
:102D2000008080E0808000000000001F2020100054
:102D30008080000000808000001F202020103F20A5
:102D4000808080008080800000030C300C03000035
:102D50008080008080008080010E300C07380601E2
:102D600000808080008080000020310E2E31200005
:102D700080808000008080800081867818060100B5
:102D800000808080808080000021302C2221300053
:102D90000000000000FC020200000000013E404074
:102DA00000000000FF00000000000000FF00000025
:102DB0000202FC000000000040403E010000000054
:102DC00000020102020402000000000000000000F6
:102DD00000000000000000000000000000000000F3
:102DE00000000000000000000000000000000000E3
:102DF000000000000000000000F0F0F00000000003
:102E00000000000000017F01000000000000000041
:102E1000001C1C1C0000000000008060301C8C6046
:102E2000301C0C000000000000000000000000004A
:102E3000000000000000000000000000000000E0B2
:102E40000000000000E000000086E69F868686867F
:102E5000E69F860000011F01010101011F01010021
:102E6000000080C06020F820E0C0000000000307E0
:102E70000C18FF70E18100000000070F10107F1098
:102E80000F0700008060206080000000E02000004C
:102E90000F3020309F70DC371030C0000000100E63
:102EA00003000718101807000000C02020E0C00031
:102EB0000000000080E01F38E88703C43C040000E5
:102EC000070F1810100B070D1010080000808C4C15
:102ED00038000000000000000000000000000000BA
:102EE00000000000000000000000000000000000E2
:102EF00000000000000080E0300804000000000036
:102F000000FEFF0100000000000000000000030FB1
:102F10001820400000040830E0800000000000009D
:102F20000000000001FFFE0000000000004020182B
:102F30000F03000000000000000000000000C000BF
:102F400000000000004266663C18FF183C666642BE
:102F5000000000000000030000000000000000006E
:102F60000000800000000000001010101010FF1082
:102F7000101010100000000000000300000000000E
:102F80000000000000000000000000000000000041
:102F9000000000000000000000808C4C38000000A1
:102FA0000000000000000000000000000000000021
:102FB0000010101010101010101010000000000071
:102FC0000000000000000000000000000000000001
:102FD00000000000000000000000000000000000F1
:102FE00000001C1C1C00000000000000000000008D
:102FF00000000000E0380C000000000080701C039E
:10300000000000000060380E010000000000000019
:10301000000080C060202060C080000000FEFF0132
:103020000000000001FFFE000001070E181010183C
:103030000E0701000000808080C0E000000000005A
:103040000000000000FFFF00000000000000101062
:10305000101F1F1010100000008040202020206052
:10306000C080000000030300804020381F070000DC
:10307000001C1A1918181818181F00000080C0200A
:10308000202060C080000000000303001010182FF3
:10309000E780000000070F10101010180F07000045
:1030A000000000000000C0E0F000000000C0B08898
:1030B000868180FFFF808000000000000010101F4C
:1030C0001F1010000000E060606060606060000041
:1030D00000003F1008080818F0E0000000070B107F
:1030E0001010101C0F030000000080C040202020A2
:1030F000E0C0000000FCFF211008080818F0E00004
:103100000001070C18101010080F03000000C0E0A9
:103110006060606060E06000000003000000E01894
:103120000700000000000000001F1F00000000005A
:103130000080C0602020202060C080000087EF2C2D
:103140001818303068CF830000070F0810101010D7
:10315000180F07000000C0C020202020C080000001
:10316000001F3F604040402010FFFE0000000C1C8C
:10317000101010080F030000000000000000000005
:103180000000000000000000000E0E0E0000000015
:1031900000000000001C1C1C0000000000000000DB
:1031A000000000000000000000000000000C0C0007
:1031B000000000000000000000583800000000007F
:1031C00000000000000000804020100000001028D7
:1031D0004482010000000000000000000000010225
:1031E00004081000000000000000000000000000C3
:1031F00000848484848484848484840000000000A7
:1032000000000000000000000000102040800000CE
:1032100000000000000000000000018244281000AF
:1032200000001008040201000000000000C020207F
:103230001010101030E0C0000003030000F0100870
:103240000C070300000000001C1C1C000000000014
:10325000000000C0406020202040C00000FCFF01B2
:10326000F00E03C1FE03807F0001070E081111104C
:10327000110904020000000080E0E00000000000EE
:103280000000807C4340477FF880000010181F102A
:1032900000000000131F1C1020E0E0202020206010
:1032A000C080000000FFFF10101010182FE78000F2
:1032B000101F1F1010101010180F0700000080C002
:1032C000402020202060E00000FCFF010000000002
:1032D000000001000001070E181010100804030080
:1032E00020E0E02020202040C080000000FFFF0000
:1032F0000000000001FFFE00101F1F101010180832
:103300000E07010020E0E020202020202060800027
:1033100000FFFF101010107C00000000101F1F1095
:10332000101010101018060020E0E02020202020AF
:103330006060800000FFFF101010107C0000010092
:10334000101F1F100000000000000000000080C0DF
:103350006020202040E0000000FCFF010000404011
:10336000C0C140400001070E181010100F0F0000E0
:1033700020E0E0200000000020E0E02000FFFF103F
:103380001010101010FFFF00101F1F100000000091
:10339000101F1F100000202020E0E020202000004F
:1033A0000000000000FFFF000000000000001010FF
:1033B000101F1F101010000000000000202020E04F
:1033C000E020202000000000000000FFFF000000BF
:1033D0000060E0808080C07F3F00000020E0E020AF
:1033E000000020A06020200000FFFF30187CE3C018
:1033F00000000000101F1F10000001131F1C1810F8
:1034000020E0E020000000000000000000FFFF00BE
:103410000000000000000000101F1F10101010100E
:103420001018060020E0E0E000000000E0E0E020EE
:1034300000FF013FFEC0E01E01FFFF00101F100053
:10344000031F0300101F1F1020E0E0C00000000059
:103450000020E02000FF0003071C78E08000FF0050
:10346000101F100000000000030F1F00000080C0AC
:1034700060202060C080000000FEFF01000000000E
:1034800000FFFE000001070E181010180C070100C5
:1034900020E0E0202020202060C0800000FFFF20EE
:1034A00020202020301F0F00101F1F1000000000E0
:1034B00000000000000080C060202060C08000008C
:1034C00000FEFF010000000000FFFE000001070EEB
:1034D0001111133C7C67210020E0E02020202020F7
:1034E00060C0800000FFFF101030F0D0080F070010
:1034F000101F1F10000000030F1C10100080C06080
:10350000202020204040E00000070F0C1818303029
:1035100060E08100001F0C0810101010180F070049
:103520008060202020E0E02020206080010000005A
:1035300000FFFF000000000100000000101F1F102E
:103540000000000020E0E020000000000020E0205B
:1035500000FFFF00000000000000FF0000070F1840
:1035600010101010100807002060E0E0200000009C
:1035700020E060200000077FF88000807C030000CE
:1035800000000000071F1C070000000020E0E020F2
:1035900000E0E0200020E0200007FFF8E01FFFFC33
:1035A000E01F00000000031F0300011F03000000D4
:1035B000002060E0A0000020E06020000000000388
:1035C0008F7CF8C6010000000010181E13000117C0
:1035D0001F1810002060E0E02000000020E06020C4
:1035E000000001073EF8E01807000000000000108E
:1035F000101F1F101000000000806020202020A05D
:10360000E0E0200000000000C0F03E0F03000000DA
:1036100000101C1F171010101018060000000000EA
:1036200000FC0404040404000000000000FF00008B
:103630000000000000000000007F404040404000CB
:10364000000010E00000000000000000000000008A
:10365000031C608000000000000000000000000368
:103660000C70800000000404040404FC000000004E
:1036700000000000000000FF0000000000004040CB
:103680004040407F0000000000000010080C040CC7
:103690000810000000000000000000000000000012
:1036A000000000000000000000000000000000001A
:1036B000000000000000000000000000000000000A
:1036C00000000000808080808080808080808080FA
:1036D00000000004040808000000000000000000D2
:1036E00000000000000000000000000000000000DA
:1036F00000000000000000000000000000000000CA
:10370000000098D844642424FCF80000000F1F181F
:10371000101010081F1F10180020E0F0000000001B
:10372000000000000000FFFF180804040CF8F0007F
:1037300000001F0F18101010180F030000000000E9
:10374000000000000000000000E0F8180404043C41
:103750003800000000030F0C1010101008060000C5
:103760000000000000000020E0F0000000E0F81C75
:1037700004040408FFFF000000030F1810101008D5
:103780001F0F080000000000000000000000000003
:103790000000E0F8484444444C7870000000030FF7
:1037A0000C181010100804000000000080C06020F9
:1037B00020E0C00000040404FFFF0404040400002F
:1037C000000010101F1F101010000000000000006B
:1037D0000000000000000000000070F88C04048C61
:1037E000F874040C007076CF8D8D8D89C8787000C8
:1037F0000020E0F000000000000000000000FFFFDB
:1038000008040404FCF8000000101F1F1000001042
:103810001F1F10000000000000606000000000009A
:103820000000040404FCFC00000000000000101074
:10383000101F1F10101000000000000000000060AA
:103840006000000000000000040404FCFC00000014
:103850000000C0C08080C07F3F0000000020E0F07A
:1038600000000000000000000000FFFF80C0F41C0A
:103870000404000000101F1F1100031F1C10100083
:103880000000202020E0F000000000000000000008
:1038900000FFFF000000000000001010101F1F10AC
:1038A00010100000000000000000000000000000F8
:1038B00004FCFC0804FCFC0804FCFC00101F1F10A6
:1038C000001F1F10001F1F1000000000000000005C
:1038D000000000000004FCFC08080404FCF80000E0
:1038E00000101F1F100000101F1F1000000000001C
:1038F000000000000000000000E0F0180C04040CC0
:1039000018F0E00000030F0C101010100C0F030053
:103910000000000000000000000000000004FCFCAB
:10392000080404040CF8F0000080FFFF88901010D9
:103930001C0F030000000000000000000000000059
:1039400000E0F81C04040408F8FC000000030F1851
:1039500010109088FFFF80000000000000000000B1
:1039600000000000040404FCFC100804040C0C001B
:103970001010101F1F1010100000000000000000A9
:10398000000000000000000000003078CCC48484F7
:10399000840C1C0000001E1810101011190F0600D6
:1039A0000000000000C0000000000000000404044B
:1039B000FFFF040404000000000000000F1F1010AF
:1039C000100C0000000000000000000000000000DB
:1039D0000004FCFE00000004FCFE000000000F1FBD
:1039E000181010081F0F0800000000000000000061
:1039F0000000000000040C3CFCC40000C43C0C04AB
:103A000000000000010F1E0E010000000000000079
:103A10000000000000000000043CFCC400E47CFC4A
:103A200084807C040000071F070000071F070000B8
:103A30000000000000000000000000000004041C62
:103A40007CE4C0341C0404000010101C1601131F79
:103A50001C18100000000000000000000000000022
:103A600000040C3CFCC400C43C0404000000C08002
:103A7000C1370E010000000000000000000000003F
:103A80000000000000001C0404C4F47C1C040000BE
:103A90000000101C1F17111010180E00000000006D
:103AA000000000F80C04000000000000001028EFE7
:103AB00000000000000000000000003F6040000027
:103AC000000000000000FF000000000000000000F7
:103AD0000000FF0000000000000000000000FF00E8
:103AE000000000000000040CF800000000000000CE
:103AF00000000000EF2810000000000000004060FF
:103B00003F00000000000000001806020204081038
:103B1000202030080000000000000000000000002D
:103B20000000000000000000000000000000202055
:103B300040586CC040406090980C000000000006A7
:103B40000810111E1414242424450000006078C0BD
:103B5000001050A0BC505030B06887000000021F19
:103B60000209152F0C17375515151000000000001D
:103B7000F03030A020C0000404FC0000000003026C
:103B8000033E121F120F0202020100000000E0209B
:103B90004080BCC080808080808000000000010EDA
:103BA0000001001F2000000000060100000000C00E
:103BB00080808080808080FC84808080808080C045
:103BC000C0000000000000FF7F404040404040FF38
:103BD00040404040404040FF7F00000000000000A7
:103BE000000000000000007F7000000000000000E6
:103BF00000000000000000000000000000000000C5
:103C0000000000FCF80000000000000000000000C0
:103C10000000000000000000FFFE0202020202029B
:103C2000020202FFFF020202020202020202FF037C
:103C300000000000000000001F1F0404040404042E
:103C4000040404FFFF0404040404040404041F0027
:103C50000000000000000000000000000000000064
:103C60000000007F3F000000000000000000000096
:103C70000000000000000000000000000000000044
:103C80000000000000000000000000000000000034
:103C900000F8F8F0F07020000000000000000000C4
:103CA0000000000000000000000000000000000014
:103CB0000000000000000000000000008000000084
:103CC00000000000000000000000000000000000F4
:103CD00000FFFFFFFF0000000000000000000000E8
:103CE00000000000000000008080000000000000D4
:103CF00000000000000000000000000000FFFFFEC8
:103D00000606060606060606060606060606060653
:103D100006FFFFFFFF06060606060606060606065F
:103D200006060606060606FFFFFFFF070200000064
:103D300000000000000000000000000000FFFFFF86
:103D40000000000000000000000000000000000073
:103D500000FFFFFFFF000000000000000000000067
:103D600000000000000000FFFFFFFF000000000057
:103D700000000000000000000000000000FFFFFF46
:103D800018181818181818181818181818181818B3
:103D900018FFFFFFFF181818181818181818181807
:103DA00018181818181818FFFFFFFF00000000006F
:103DB00000000000000000000000000002010100FF
:103DC00000000000000000000000000000000000F3
:103DD00000FFFFFFFF0000000000000000000000E7
:103DE00000000000000000010100000000000000D1
:103DF00000000000000000000000000000000000C3
:103E000000000000000000000000000000000000B2
:103E100000FFFFFFFF0000000000000000000000A6
:103E20000000000000000000000000000000000092
:103E30000000000000000000000000000000000082
:103E40000000000000000000000000000000000072
:103E5000001F1F0F0F000000000000000000000006
:103E60000000000000000000000000000000000052
:103E700000000000943E00080000002050080000F0
:103E800000020008444000085008002058090000C3
:103E9000841A0008412D0102030404D00906070812
:103EA000090204060884A24A04692401401DFCFC9E
:103EB000FCFE031AFE050469FCF8E000186780E0C8
:103EC000FCFE06061EE28707070F1F7BFBE7C78184
:103ED000651B01030114187EE743FF031D070CF85F
:103EE0000801000A68090F0FC7FA0E0C78E00019E4
:103EF00068030F79F0F060602020203F2020606090
:103F000060E0F0FF6030180C0735F0380F0320092F
:103F100080C0E07070E0C0800D6501031E38FE4077
:103F20000EE0603C070180C060381C0603011808E1
:103F30000107061C30E0800804601C70C024F8FFF4
:103F40003F3CC0F61F7AC11F010F1C78F08084032C
:103F500059F080000A176060666F7F7C7C7C4F00A0
:103F60000969014F7C7878686F601DFCFEFCFE03D8
:103F70000808667E3EFEFCFC38F078001B6380E09B
:103F80002030101818F8C80808171F1F0F0F0F0E41
:103F90001811183D7261C0C03009E0380E03C070BE
:103FA00038E01E01030EF80C011008183060C0F054
:103FB0008E80046280F73E18100103060C3B66DC1D
:103FC000FFF060602020203F04000B686060E0F09C
:103FD000FF300C07030135E0380F03280980C0E0EB
:103FE0007070E0C080950C661E38E07D143C0701BF
:103FF0004EC060301C06F110080103061C30E08042
:10400000066101071C70C01BF83F7D3BF01F7AC1A1
:104010001F010F1C78F080840B59F080FB000817FB
:10402000E0E6EFF8FCFCCF00093601CFFCF8F8E839
:10403000EFE01210123012201260124012C01280F3
:0440400022900000CA
:0400000508000131BD
:00000001FF
